:020000040800F2
:1000000000100020B16C0008696A00086B6A0008E3
:1000100000000000000000000000000000000000E0
:100020000000000000000000000000006D6A0008F1
:1000300000000000000000006F6A0008716A0008FC
:100040001B130008000000002F18000833180008D8
:1000500037180008932D00083F300008BB3B00080C
:1000600000000000676A0008776B0008876C0008D2
:10007000B96A0008936C0008D16C00080000000009
:10008000D36C0008D56C0008D76C0008D96C000848
:10009000DB6C0008DD6C0008DF6C0008E16C000818
:1000A000E36C0008E56C0008E76C0008D96A0008FA
:1000B000E96C0008EB6C0008FDB5B2B03A98049109
:1000C00002A93B22885400200D9024A8401C2F90A8
:1000D0000DE00498329A90470490002801D100F076
:1000E00001FF0D98401C0D903398401C33903398BD
:1000F0000178002910D02529EBD100200790089025
:1001000009900A900B900C90002102240120149079
:1001100008201290339D05E00D9800F0E5FE0800E0
:10012000149901436D1C28782028F8D023280BD07F
:100130002B2804D02D2804D0302808D00AE02143F1
:10014000F0E708000421ECE708000821E9E70800CF
:100150001021E6E72A280FD1349802681068121D92
:10016000349B1A600F90002804D542420F92080079
:10017000042101436D1C12E000200F90654A09E044
:100180000F9B934205DA9E00F3185B001818303875
:100190000F906D1C28780300303B0A2BF0D3287891
:1001A0002E2803D00020C0430E9027E06D1C287835
:1001B0002A2808D1349800680268001D349B186012
:1001C0000E926D1C1AE02D2802D12D226D1C00E02C
:1001D000002200200E900CE0002A09D10E9B4D4E0B
:1001E000B34205DA9E00F3185B00181830380E9001
:1001F0006D1C28780300303B0A2BEDD302A8018741
:100200002E78310041487844FF30C01C00F052FF86
:10021000002801D06D1C00E0002602A83A214654B7
:10022000405C682804D1287868280BD1622005E05A
:100230006C2807D128786C2804D1712002A93A22B1
:1002400088546D1C15A80690287869460870681CAB
:100250003390684602781000253833D01C3800D11E
:1002600016E2001F022800D812E2133801D100F074
:1002700065FD093800D10BE2801E01D100F0FBFDC5
:10028000401E01D100F0A8FD401E022800D8FFE169
:10029000001F01D100F0A0FD401F00D152E1401E1F
:1002A00001D100F04BFD401E00D1F3E0C01E10D084
:1002B000801E01D100F042FDC01E01D100F03EFDC4
:1002C00000F0E4FD252015A908701498079000F0AF
:1002D000E8FD349800680468001D349908600594AE
:1002E000002C00D0C2E002A83B21405C002800D1D5
:1002F000B5E00024E44306487844143000F002FFDF
:10030000201A01D000F0EEFD00F0CBFD00680000E7
:1003100034680000CBCCCC0C01236A4602A928002B
:1003200000F0ADFE002801D000F0DCFD641EF3D12A
:100330003295079D15AC002D0FD0329E227802A970
:10034000300000F08BFE002802D4641C6D1EF5D135
:100350003296002801D000F0C5FD302069460870B3
:100360000A9C002C0DDD329D01236A4602A928005B
:1003700000F085FE002801D000F0B4FD641EF3D12A
:100380003295059C089D002D0FD0329E227802A93F
:10039000300000F063FE002802D4641C6D1EF5D10D
:1003A0003296002801D000F09DFD302769460F707D
:1003B0000B9C002C0DDD329D01236A4602A928000A
:1003C00000F05DFE002801D000F08CFD641EF3D12A
:1003D0003295059808994418099D002D0FD0329E3A
:1003E000227802A9300000F039FE002802D4641CF3
:1003F0006D1EF5D13296002801D000F073FD6846DD
:1004000007700C9C002C0DDD329D01236A4602A969
:10041000280000F034FE002801D000F063FD641EC7
:10042000F3D1329502A83821405C400700D45EE643
:100430002020694608700198002800DC57E6019CDE
:10044000329D01236A4602A9280000F018FE002808
:1004500001D000F047FD641EF3D1329547E63F48D6
:100460007844FF30C01F059000F01BFD0E9D002D4D
:1004700003D5200000F06AFE09E02A0000212000D8
:1004800000F070FE002801D0001B00E0280008905A
:1004900000F007FD349800680268001D3499086078
:1004A0000020C0430021104002AA03C215A80590F5
:1004B000069A3C2302A803C8002904D1002802D1CF
:1004C0000E9C002C14D05B1E05072D0F30353A2DE5
:1004D00008DAD55400090C072043090904D1002883
:1004E00002D105E02735F4E7059CD518AC42EAD3E4
:1004F0003C20C01A0890D11805910E99884208DA5C
:10050000081A0A9002A8018FAA4A0A40028700F03E
:10051000C8FC002901D400F0C4FC02A93822895C7F
:1005200014220A40102A01D000F0BBFC0F99079A50
:10053000891A0A9A891A081A002801DC00F0B1FC0D
:1005400000F0FAFB02A83B21415C002908D00024FE
:10055000E4434B487844FF302930CFE6046600007E
:100560003A21405C62286AD0682819D06A2845D0B0
:100570006C2806D071284FD0742831D07A2821D029
:100580006FE0349800680168001D349A10600029FB
:100590007AD10024E4433B487844FF301738ADE675
:1005A000349800680168001D349A1060002905D154
:1005B0000024E44333487844CA309FE60D9808800D
:1005C00000F06FFC349800680168001D349A1060D8
:1005D000002959D10024E4432A487844A6308DE606
:1005E000349800680168001D349A106000294BD1CE
:1005F0000024E443234878448A307FE63498006836
:100600000268001D34990860002A13D10024E443D5
:100610001C4878446E3071E6349800680268001D0A
:1006200034990860002A05D10024E4431548784431
:10063000523063E60D98C11703C200F032FC3498C3
:1006400000680168001D349A1060002905D100245B
:10065000E4430C4878442C3050E60D98087000F0C4
:1006600020FC349800680168001D349A106000294D
:100670000AD10024E4430348784408303EE600BF32
:1006800094640000A86400000D98086000F009FC64
:1006900034980368DB1D072083433498036003CB41
:1006A000349D2B6002AB03C32023C80F04D00798EE
:1006B0002D2115AB19540DE002A8008F204204D063
:1006C00007982B2115AB195404E0C00704D50798EF
:1006D00015A90B54401C079015A8079943180593BA
:1006E00024AD02A8C0C868460078202101436846AE
:1006F0008170807861280BD00E98002801D50620E3
:1007000005E005D168468078672801D114980E90DD
:1007100002A803C808004C006415641C0ED109032C
:100720000CD003200890613A1A2A03D22249794456
:1007300086310FE02149794482310BE0002C0ED143
:1007400000030CD103200890613A1A2A1DD31C49DA
:1007500079446C310322180000F02AFDA1E301AABC
:1007600002A803C800F031FD02AA03C268468078DF
:10077000612813D1059830210170811C05916946CB
:100780000978612905D1782104E00E497944343192
:10079000E0E7582141700798801C079002A803C821
:1007A00092A20CCA02400B400ED1002A0CD10024A8
:1007B000002660E1EFFF0000AC630000AC630000C6
:1007C000B0630000A863000068468078612800D00C
:1007D00099E00E98002801D5212000E0401C1390DC
:1007E0001398401C2E90300039000022002300F0A6
:1007F00001FD02A830C802D28020000645400198C1
:10080000001F019024A90A7024A8461C2E980028D5
:1008100032DD2E9F20002900002280235B0300F0A0
:1008200002FD29D81C2200F017FD04000D0000F085
:100830004BFD2E90FF1F002F09DD00F07FFD020011
:100840000B002000290000F0E0FD04000D00F01D69
:1008500007212E9A002A0ADD491E08D4401E1307DC
:100860001B0F03701211F5E7401E00220270491E93
:10087000FAD5C61D002FCDDC24A82F99711A24AA01
:10088000551C139A0C00914200DD1400002C33D447
:100890008C4205DA411C095D082901DB0F2100E0CB
:1008A0000021220024AB9B1801E0641E5B1E521E37
:1008B0001E788E42F9D00F2904D1411C895C491C55
:1008C000401C8154002A04D524AD641C0198001DED
:1008D0000190611E10D46A1868460078137830338E
:1008E000DEB23A2E01DBC318C6331370491E521E06
:1008F0000029F3D5694608700E98002800D4B9E0A5
:10090000601E0E90B6E07F007F080198684948435A
:10091000684900F0F1FD019007200199401A002874
:1009200005DD02003000390000F072FB0AE04242AF
:100930000020614900F06CFB02000B003000390020
:1009400000F009FE6A469278662A02D1019A0A32BC
:1009500000E006220E9B9A18142A00DD142224AB14
:1009600030241C705C1C02E030A803C8139A002AD3
:1009700040DD30AB03C3139230A803C800F0B6FCCF
:100980002E9006460834042530000A2100F0C8FDE8
:100990000F0030000A2100F0C3FD06003037601E52
:1009A000077030000A2100F0BBFD0F0030000A2163
:1009B00000F0B6FD0600A41E303727706D1EE3D18F
:1009C00008341398083813900028CDDD2E9800F0D5
:1009D000A5FC02000B0030A803C800F016FD0022A1
:1009E000364B00F019FE30AA03C2C5E7FFFFFFFF38
:1009F000FFFFFF7F2F98201A24A94D1C04E0401E02
:100A00000199491E01916D1C29783029F7D069465A
:100A10008978662902D10199491C06E069468978DE
:100A2000652901D1149900E000210E9A5418A042C2
:100A300000DA441E002C1DD4844204DA285D3428D8
:100A400001DD392100E030212200681E831801E019
:100A5000641E5B1E521E1E788E42F9D0392902D1C7
:100A6000A95C491CA954002A04D50500641C0198FE
:100A7000401C0190019E13956846007869464870B5
:100A800000F08CFE406A0078694608700E9D20B226
:100A9000002804DC149C0548784410301390684604
:100AA000807866280CD1761C24E000BFC860000066
:100AB00097750000A08601000000F03F84D79741A1
:100AC00068468078672846D130B20321C9438842FE
:100AD00047DBA84245DA761C02A8008F1299C0B203
:100AE000084203D120B2A84200DC050030B22D1A22
:100AF00000D5002537B2002F00DDBAE00898411C70
:100B000008913021059A1154002D05DC02A8008FB0
:100B10001299C0B2084206D00898411C0891694653
:100B20000978059A11547842854200DA6E4236B24D
:100B300070420B90AD1920B2854200DA2C0024B22D
:100B40000994220013990598089BC01800F030FB07
:100B5000281B0C90DAE068464078612818D1702094
:100B60001BE020B2A84206DA02A9098F129AC9B284
:100B7000114200D105006D1E00D500256846407861
:100B8000672802D16520694607E04520694604E0F0
:100B900068464078412801D1502048700898411C8F
:100BA000089113990978059A11541398411C002D46
:100BB00005DC02A8008F129AC0B2104219D0089822
:100BC000421C08926A461278059B1A54002D10DDCB
:100BD000641E20B2854200DA2C0022B20598089BE0
:100BE000C01800F0E5FA24B2089800190890281BF4
:100BF0000B9005980899401869464978017031B200
:100C0000002903D42B214170871C03E02D22427060
:100C1000871C4E42002412AD300008E00A2100F08B
:100C20006BFC30AA03C229703098641C6D1C00B2A2
:100C30000028F3DC012C08DC6846407820210143C1
:100C4000652902D1302038707F1C002C09D130205A
:100C500038707F1C07E0641E12A8005D30303870C9
:100C60007F1C002CF7DC059808994018381A099069
:100C70004CE020B231B288421DDA22B213990598B5
:100C8000089BC01800F094FA24B208980019089044
:100C9000391B0B91002D05DC02A9098F129AC9B2EC
:100CA000114206D069460978059A11540998401CEA
:100CB00009900C952AE032B213990598089BC01848
:100CC00000F076FA0898C0190890A41B002D05DCE6
:100CD00002A9098F129AC9B2114205D0411C08918C
:100CE00069460978059A115420B2854200DA2C0031
:100CF00022B21398C1190598089BC01800F058FA41
:100D000024B2089800190890281B0B9002A83821DB
:100D1000405C14210140102900D0C2E007980899D6
:100D200040180B994018099940180C9940180F99D0
:100D3000884200DBB5E0081A0A90B2E002AA3A2025
:100D4000105C622808D068280ED06A2814D06C285D
:100D50001DD0712810D01AE0349801680868091D68
:100D6000349B1960C0B218E0349801680868091D06
:100D7000349B196080B210E034980368DB1D0720B3
:100D800083433498036003CB349C236006E034989B
:100D900001680868091D349B1960002102AB03C378
:100DA000108F1299C0B208425BD002A803C8002974
:100DB00001D1002855D068460078202101437829C8
:100DC0004FD1079815A930220A54401C421C0792A3
:100DD0006A4612780A5444E002AA3A20105C62285B
:100DE00008D068280ED06A2814D06C281DD071282D
:100DF00010D01AE0349801680868091D349B196006
:100E000040B218E0349801680868091D349B1960E5
:100E100000B210E034980368DB1D07208343349848
:100E2000036003CB349D2B6006E0349801680868AA
:100E3000091D349B1960C11702AB03C3002902DAF4
:100E400007982D2109E0108F204202D007982B210E
:100E500003E0C00705D50798202115AA1154401CAE
:100E6000079015A80799401805906846017802A8D0
:100E700000F03CF815E01498079034980068016879
:100E8000001D349A106015A801700AE0252015A9EC
:100E900008701498079068460078002801D04A70BE
:100EA00007940F980799401A0A99401A0899401A0E
:100EB0000B99401A0999401A0C99401A019002A8FE
:100EC0003821405C400701D5FFF733FA20206946FE
:100ED00008700198002801DCFFF72BFA019C329D75
:100EE000FFF71AFA0020C04335B0F0BDF2B586B066
:100EF000040025696F2901D1082707E00846202151
:100F00000143782901D00A2700E010273C2603CCB2
:100F1000083C04AA03C26A46127E642A03D06A46C9
:100F2000127E692A09D1002907DA04A803C8002221
:100F30000023121A8B4104A80CC004A803C800297E
:100F40000DD100280BD1206B002808D1082F3DD1EE
:100F50003820205C000739D53B26302035E002944C
:100F6000009504A830C8761E0196200029003A009A
:100F7000FB1700F019FC3032D0B23A280DDA009895
:100F80008255200029003A00FB1700F00DFC0400F8
:100F90000D0007D1002C05D10AE06846007E8218BA
:100FA000AF32ECE70298C068009989198842DAD319
:100FB000029C009D082F09D13820205C000705D530
:100FC000A85D302802D0761E3020A8553C20801B1A
:100FD000A061A919E160216B884206DA081A206233
:100FE000208F1C490140218710E000290ED53821AF
:100FF000615C14220A40102A08D1616B6269891A67
:10100000226A891A081A002800DD206207B0F0BDA4
:10101000F8B50026104F04000D00009214E0C00740
:1010200007D532003B002000290000F0F5FA04004B
:101030000D000098401000903000390032003B0055
:1010400000F0EAFA06000F0000980028E7D120001F
:101050002900F4BDEFFF00000000244010B503009C
:101060000C001100A0689847A060002804D0E06A36
:10107000401CE062002010BD0020C04310BDF8B548
:101080000024002B11D007000E0014001D00217851
:10109000B068B847B060002809D0F06A401CF06220
:1010A0000020641C6D1EF2D104002000F2BD00205F
:1010B000C043F9E7C9B202788A4203D0401C002A33
:1010C000F9D10020704730B50168411844686208C2
:1010D0008A188368E40704D54C461B1901E0641C98
:1010E00009D1914203D00C7864B2491C01E00C3064
:1010F00030BD0D78491C1D705B1C002CEFD4641EA4
:10110000F7D5EEE780B5002801D100BF07A006495A
:101110000B68002B03D022220021984701E000F049
:1011200081FB222002BD0000FC0B0020636F6E7368
:10113000747261696E742068616E646C65723A20C5
:10114000626164206D65737361676500431C01789B
:10115000401C0942FBD1C01A70470268531C03604F
:1011600011707047C9B2521E05D30378401C8B42E0
:10117000F9D1401E7047002070472E0070B4103A1D
:1011800003D378C9103A78C0FBD2530701D318C9EA
:1011900018C001D508C908C0D20704D30B88038042
:1011A000891C801C002A01D50B78037070BC704725
:1011B0008B0701D18307E1D0124205D00B78491C7F
:1011C0000370401C521EF9D1704710B5144600F050
:1011D00002F8226010BD4A0053155B1C08D0520D66
:1011E00006D003231B02FE3AD21A1305C91A704710
:1011F0000022704730B4012464054D00EC420BD846
:101200005D00EC4208D80C001C4364000443144306
:1012100004D2994200D1904230BC7047FCD08B423E
:10122000FAD18242F8E730B4012464054D00EC4263
:101230000BD85D00EC4208D80C001C43640004434A
:10124000144304D28B4200D1824230BC7047FCD0A0
:101250009942FAD19042F8E7124217D40023DB43B7
:101260005B0D9C464B005B0D06D0634504D09B187C
:10127000634502D21205891870476246090D114371
:101280000905002000B500BF00BF00BD52424B0061
:101290005B0DF1D05B1C5B05EED25B0D934102D977
:1012A0001205891A70470BD10B031B13C90FC9070D
:1012B000821C002043411343E4D912051143E1E7A6
:1012C000C90FC9070020DDE7F4464A1805D200F02F
:1012D0000FF801D580174008604700F009F8012198
:1012E000C907884200D90800404260474A1812D214
:1012F000400DC90208430121C9070843520D40218E
:101300000901521A521C06D452421F3201D4D04055
:101310007047C017704700207047FEE70100422267
:101320001201D21E004207D002D4521E0018FCD572
:10133000C10A400512058918704700000100EED56A
:101340004042F446FFF7EBFF0122D207114360470A
:101350008B4200D1824205D98446100062468C46F9
:1013600019006346DF184C18640D7F0D3AD0661CD7
:10137000760537D0E61B352E34DCDB022B43DB0A47
:101380000C0DC9022943C912202E0DDB1700203E87
:1013900006D01F00F741F3405F400026012A774145
:1013A000C01871410DD217E01700F741F2405740C5
:1013B000F3415A40B340F3405A4000268018594147
:1013C0000AD3A21C52050FD0C207012F7241170089
:1013D0004008CB0718434908641C24054208AF4164
:1013E00070416141F0BC7047641C21050020F9E7A1
:1013F0006B4010E06B40ABE7F742F3D1E943F1E714
:101400002442EFD100200021ECE7F0B40125ED07E4
:101410000F005F40EED40C00871A9C4105D2C01B20
:10142000A141D219634169406B40AE0ADF184C18E4
:10143000F442E1D2640D7F0DE2D0E61B362ED1DC02
:10144000DB022B43DB0AA4460C0DC9022943C90A5F
:10145000012E28DC04D1D6075208DF073A435B0887
:10146000EF0A76429041994114D039423BD1B619E6
:1014700040414941761C394204D1761C001849414B
:101480003942FAD0B9436746B74208D9A41B2405AC
:101490002143A7E70042EAD13642E8D1A2E7E40AB5
:1014A000E10700209EE7202E0BDD203E1F00F340C9
:1014B000F7415F40012A002257417E429841914105
:1014C0000BE01700F741F2405740F3415A40B34058
:1014D000F3405A407E42904199410A0303D2641E70
:1014E000B619404149410027641E24054208AE4117
:1014F00078416141F0BC7047CA0F00D049420310E7
:101500005A400DD004B500D3404200F009F8009ACB
:10151000D20701D34942124200D5404204BD000027
:10152000094214D088420FD30122030C01D10004D8
:101530001204002300185B418B4200D35B1A524116
:10154000F8D319001000704701000020704708B55B
:1015500000F06EF908BDF0B40E005E400125ED0705
:101560002E40B446AE0ADF184C18F4423BD2F74284
:1015700041D2640D43D07F0D38D0E41BC902DB0299
:1015800029432B43CF0ADB0A0600B61A9F4104D237
:10159000641EB6197F41B6185F416812800D241889
:1015A0000018844222DCE80C0021B6197F41B61AEB
:1015B0009F4102D2B6185F413F1C40414941F4D3DC
:1015C000241C21DD2405B6197F41B61A9F4105D39D
:1015D0003743C60737430026012F704161416646F5
:1015E0003143F0BC7047FCD1F74205D20020C14323
:1015F00049054908F3E704D00020C143F1E77F0D16
:10160000FAD000206146ECE72442FAD1401C614147
:101610000F03F6D30020E2E7F0B50E005E4001258F
:10162000ED072E40B446AE0ADF184C18F44208D23B
:10163000F7420ED2640D01D07F0D12D10020614619
:10164000F0BD05D1F74201D87F0D05D10020C1437F
:10165000F0BDFBD1640DF9D00020C1434905490814
:101660008FE0E419C902DB0229432B43DB0A460D54
:10167000C00231438E4630B487B295B27D432E0C02
:10168000ADB2140C7C43A419260C240425439CB24F
:101690007C43A419190C7943270CC919A4B20F046F
:1016A0003C43090C000C97B247432E0CBE1935433E
:1016B000ADB2170C4743360CBF19A6B2BF193E0492
:1016C0003543240C3E0C36199FB24743BF19BCB2B8
:1016D0003E0C89191F0C47437F183E043443390CD4
:1016E000704680B297B247432E0CBE193543ADB257
:1016F000170C4743360CBF19A6B2BF193E04354339
:10170000240C3E0C36199FB24743BF19BCB23E0CA5
:1017100089191F0C47437F183E043443390C774620
:101720003F0C90B278432E0C80190604ADB22E43C4
:10173000050CA0B22D18120C7A435019020C80B27D
:10174000240CA4189AB27A43121914042043120CE0
:1017500089181B0C7B43C91830BCEF0A394203D1EE
:10176000B61940414941641E6F12BF0DE41B0BDBEB
:10177000FF19BC4211DA240500274208AE41784126
:10178000614166463143F0BD641C05D1401C614196
:10179000CF0201D34908F4E750E75DE701487047FD
:1017A00000000000E406002012422DD0994231D9F9
:1017B00070B500251B4209D00C00002112E0110079
:1017C000FFF7AEFE0A000021002370BD0942F6D0EB
:1017D0000024012649186441944200D3A41A76419A
:1017E000F8D33100012601E0764109D200186441A6
:1017F0006D41A41A9D41F7D2A4185D41B619F5D3E5
:10180000300022002B0070BD1B42CFD108B500F084
:1018100011F808BD01D19042CAD202000B0000218C
:101820000020704780B5012000F006F801BDFEE7FA
:101830007047FEE77047FEE780B500BF00BF024A71
:1018400011001820ABBEFBE72600020000000000DC
:101850000000000000000000000000000000000088
:101860000000000000000000000000000000000078
:101870000000000C000C000C000C000C000C000C14
:10188000000C000C000C000C0000000C000C000010
:10189000000000000000001B001B001B001B001BC1
:1018A0000000000000000000000000000000000038
:1018B000000000000000000000008019801980195D
:1018C0008019C07FC07F80190033C07FC07F003384
:1018D0000033003300330000000000000000001E51
:1018E000003F807580650074003C001E0007800585
:1018F000806580658075003F001E000400040000C4
:101900000000007000D840D8C0D880D9007300060D
:10191000000C801BC036C066C046C00680030000B5
:10192000000000000000001E003F003300330033C1
:10193000001E000CC03CC066806380618063C03EB6
:10194000801C0000000000000000000C000C000CD7
:10195000000C000C0000000000000000000000006F
:1019600000000000000000000000000080000001F6
:101970000003000600060004000C000C000C000C24
:10198000000C000C000400060006000300018000AB
:10199000002000100018000C000C000400060006D7
:1019A00000060006000600060004000C000C0018EB
:1019B000001000200000000C002D003F001E00332E
:1019C0000000000000000000000000000000000017
:1019D0000000000000000000000000000000000CFB
:1019E000000C000C000CC0FFC0FF000C000C000C31
:1019F000000C0000000000000000000000000000DB
:101A000000000000000000000000000000000000D6
:101A1000000000000000000C000C0004000400089E
:101A200000000000000000000000000000000000B6
:101A30000000001E001E000000000000000000006A
:101A40000000000000000000000000000000000096
:101A50000000000000000000000000000000000C7A
:101A6000000C000000000000000000030003000361
:101A70000006000600060006000C000C000C000C1E
:101A80000018001800180000000000000000001EF0
:101A9000003F0033806180618061806D806D806176
:101AA000806180610033003F001E000000000000E4
:101AB00000000006000E001E00360026000600068C
:101AC00000060006000600060006000600060000EC
:101AD000000000000000001E003F807380618061F4
:101AE000800100030006000C001800300060807FB9
:101AF000807F0000000000000000001C003E00632A
:101B000000630003000E000E00038001800180616D
:101B10008073003F001E000000000000000000066F
:101B2000000E000E001E001E001600360036006675
:101B3000807F807F00060006000600000000000095
:101B40000000007F007F006000600060006E007F8A
:101B500080638001800180618073003F001E00006F
:101B6000000000000000001E003F80338061006024
:101B7000006E007F80738061806180618033003FF0
:101B8000001E0000000000000000807F807F8001B8
:101B90000003000300060006000C000C000C000807
:101BA0000018001800180000000000000000001ECF
:101BB000003F8063806180610021001E003F8061E2
:101BC000806180618061003F001E00000000000015
:101BD0000000001E003F007380618061806180739F
:101BE000803F801D800180610073003F001E000067
:101BF0000000000000000000000000000000000CD9
:101C0000000C000000000000000000000000000CBC
:101C1000000C0000000000000000000000000000B8
:101C200000000000000C000C00000000000000009C
:101C30000000000C000C000400040008000000007C
:101C40000000000080008003000E003800600038B3
:101C5000000E800380000000000000000000000073
:101C600000000000000000000000807F807F000076
:101C70000000807F807F0000000000000000000066
:101C800000000000000000000000000000400070A4
:101C9000001C000780010007001C007000400000CD
:101CA00000000000000000000000001F803FC07125
:101CB000C060C000C00180030007000E000C000CD3
:101CC0000000000C000C0000000000000000001EDE
:101CD000003F803180718063806F806D806D806F88
:101CE000806700600032003E001C00000000000021
:101CF0000000000E000E001B001B001B001B8031AB
:101D00008031803F803F8031C060C060C060000093
:101D1000000000000000007C007E006300630063A0
:101D20000063007E007E0063806180618063007FCD
:101D3000007E0000000000000000001E003F803117
:101D40008061006000600060006000600060806191
:101D50008031003F001E0000000000000000007CF9
:101D6000007F006380638061806180618061806149
:101D7000806100630063007E007C000000000000C2
:101D80000000807F807F0060006000600060007F56
:101D9000007F0060006000600060807F807F000046
:101DA000000000000000807F807F00600060006015
:101DB0000060007F007F00600060006000600060E5
:101DC00000600000000000000000001E003F8031A5
:101DD000806100600060006080638063806180617A
:101DE0008031803F001E0000000000000000806184
:101DF00080618061806180618061807F807F80619F
:101E0000806180618061806180610000000000006D
:101E10000000003F003F000C000C000C000C000C08
:101E2000000C000C000C000C000C003F003F0000F8
:101E3000000000000000800180018001800180011D
:101E40008001800180018001806180618073003F9A
:101E5000001E0000000000000000C0608061006300
:101E600000660066006C0078007C00660066006317
:101E700080618061C0600000000000000000006020
:101E80000060006000600060006000600060006052
:101E9000006000600060807F807F00000000000024
:101EA0000000C071C071C07BC07AC06AC06AC06ED9
:101EB000C064C060C060C060C060C060C06000003E
:101EC0000000000000008071807180798079807945
:101ED000806D806D806D80658067806780678063BE
:101EE00080630000000000000000001E003F00337F
:101EF00080618061806180618061806180618061DA
:101F00000033003F001E0000000000000000007EC3
:101F1000007F80638061806180618063007F007EDC
:101F200000600060006000600060000000000000D1
:101F30000000001E003F003380618061806180618D
:101F400080618061806580670033803F401E0000B3
:101F5000000000000000007E007F806380618061DF
:101F60008063007F007E00660063006380618061A3
:101F7000C0600000000000000000000E001F803163
:101F8000803100300038001E0007800380618061CE
:101F90008031003F001E0000000000000000C0FF74
:101FA000C0FF000C000C000C000C000C000C000C1E
:101FB000000C000C000C000C000C000000000000E5
:101FC00000008061806180618061806180618061EA
:101FD00080618061806180618073003F001E00002D
:101FE000000000000000C060C060C060803180312F
:101FF0008031001B001B001B001B000E000E000E9A
:1020000000040000000000000000C0C0C0C0C0C04C
:10201000C0C0C0C0C0CC804C804C805E805280521A
:102020008073806180610000000000000000C0C07B
:10203000806080610033003B001E000C000C001E1D
:10204000001F003B80718061C0C0000000000000E4
:102050000000C0C08061806100330033001E001E9C
:10206000000C000C000C000C000C000C000C00001C
:10207000000000000000803F803F8001000300035B
:102080000006000C000C0018001800300060807F73
:10209000807F000000000000000F000F000C000C0B
:1020A000000C000C000C000C000C000C000C000CD0
:1020B000000C000C000C000C000F000F00000018BA
:1020C00000180018000C000C000C000C00060006A4
:1020D00000060006000300030003000000000000EB
:1020E000001E001E00060006000600060006000690
:1020F00000060006000600060006000600060006B0
:10210000001E001E0000000C000C001E0012003318
:1021100000338061806100000000000000000000CA
:1021200000000000000000000000000000000000AF
:10213000000000000000000000000000000000009F
:102140000000000000000000E0FF00000000003878
:102150000018000C0000000000000000000000005B
:10216000000000000000000000000000000000006F
:1021700000000000000000000000001F803F8061A0
:102180008001801F803F80618063807FC0380000B5
:102190000000000000000060006000600060006E51
:1021A000007F807380618061806180618073007FC7
:1021B000006E0000000000000000000000000000B1
:1021C0000000001E003F807380610060006080613D
:1021D0008073003F001E000000000000000080012E
:1021E000800180018001801D803F8073806180615B
:1021F000806180618073803F801D000000000000CE
:1022000000000000000000000000001E003F0073FE
:102210008061807F807F00608071003F001E000031
:10222000000000000000C007C00F000C000C807F01
:10223000807F000C000C000C000C000C000C000C4B
:10224000000C000000000000000000000000000082
:10225000801D803F807380618061806180618073B8
:10226000803F801D80018063007F003E0000006091
:10227000006000600060006F807F8071806180611D
:1022800080618061806180618061000000000000E9
:1022900000000006000600000000003E003E0006B0
:1022A0000006000600060006000600060006000004
:1022B000000000000006000600000000003E003E96
:1022C00000060006000600060006000600060006DE
:1022D00000060046007E003C0000006000600060D8
:1022E0000060806100630066006C007C0076006323
:1022F00000638061C0600000000000000000003E3C
:10230000003E000600060006000600060006000665
:10231000000600060006000600060000000000009F
:102320000000000000000000000080DDC0FFC0CE03
:10233000C0CCC0CCC0CCC0CCC0CCC0CCC0CC0000C9
:102340000000000000000000000000000000006F1E
:10235000807F807180618061806180618061806147
:10236000806100000000000000000000000000008C
:102370000000001E003F8073806180618061806189
:102380008073003F001E00000000000000000000FD
:1023900000000000006E007F8073806180618061BA
:1023A00080618073007F006E0060006000600060EC
:1023B0000000000000000000801D803F80738061ED
:1023C0008061806180618073803F801D8001800119
:1023D0008001800100000000000000000000006794
:1023E000803F0039003000300030003000300030D5
:1023F00000300000000000000000000000000000AD
:102400000000001E803F80610060007F803F8001EF
:102410008061007F001E000000000000000000003E
:10242000000800180018007F007F0018001800182E
:10243000001800180018801F800F00000000000026
:1024400000000000000000000000806180618061E9
:1024500080618061806180618063807F803D000059
:102460000000000000000000000000000000C0604C
:10247000803180318031001B001B001B000E000EDC
:102480000006000000000000000000000000000046
:10249000000080DD80DD80DD0055005500550077AF
:1024A0000077002200220000000000000000000071
:1024B000000000000000806100330033001E000CAB
:1024C000000C001E0033003380610000000000009B
:1024D0000000000000000000806180618031003356
:1024E0000033001B001B001B000E000E000E001C22
:1024F000007C007000000000000000000000C07FB1
:10250000C07F800100030006000C00180030C07F6F
:10251000C07F000000000000800380070006000666
:10252000000600060006000E001C001C000E00063F
:10253000000600060006000680078003000600066D
:10254000000600060006000600060006000600065B
:10255000000600060006000600060006000600064B
:102560000038003C000C000C000C000C000C000EAD
:1025700000070007000E000C000C000C000C000C03
:10258000003C0038000000000000000000000000D7
:1025900000008038807F004700000000000000003D
:1025A000000000000000000010B5040001D101206F
:1025B00010BD3D20205C002804D13C216054200047
:1025C00000F072FCFFE702203D216054211D2068CD
:1025D00000F008FA0120482160543E2160543F2158
:1025E0006054402160544121605442216054432191
:1025F0006054442160544521605446216054472171
:1026000060543D216054002010BD10B5040001D17C
:10261000012010BD3D20205C002804D13C216054E5
:10262000200000F00BFDCEE738B50400002901D1F1
:102630003E2010E0042901D13F200CE0082901D1FF
:10264000402008E00C2901D1412004E0102901D1EB
:10265000422000E04320205C012801D0012032BD4F
:102660000220002901D13E2210E0042901D13F229D
:102670000CE0082901D1402208E00C2901D14122B7
:1026800004E0102901D1422200E04322A05401229B
:10269000206800F071FB2268144815498A4207D06F
:1026A000824205D0134B9A4202D0134B9A4204D176
:1026B000536C80252D021D435564236801228B42F3
:1026C00004D00E498B4201D0834207D199680F484C
:1026D0000840062807D01104884204D01846006834
:1026E000024318460260002032BD00000040014055
:1026F000002C01400044014000480140000400401B
:1027000070B504000D0000222BE00000070001005E
:1027100004000D0006D0042D0BD0082D10D00C2D78
:1027200015D01CE02068C168324A0A40C260606A65
:1027300013E02068C168304A0A40C260A06A0CE019
:102740002068C1682D4A0A40C260E06A05E020683E
:10275000C1682B4A0A40C260206B00F0ADFC002229
:102760002900206800F008FB2268264826491F4BF4
:102770009A4208D01C4B9A4205D01D4B9A4202D077
:10278000224B9A4209D1136A0B4006D1136A0340C7
:1027900003D1536C1E4E1E4056642268136A1940C2
:1027A00008D1116A084005D110460068012188430C
:1027B000114608600120002D01D13E2110E0042DBA
:1027C00001D13F210CE0082D01D1402108E00C2D62
:1027D00001D1412104E0102D01D1422100E043212B
:1027E0006054002070BD000000400140002C0140FA
:1027F00000440140FFFDFFFFFFFBFFFFFFF7FFFF6E
:10280000FFEFFFFF440400001111000000480140E9
:10281000FF7FFFFFF1B53C23C05C012801D10220FE
:10282000F2BD0120009B3C24185508273C4EC502F0
:102830000C00002A0AD0042A18D0082A28D00C2A12
:1028400036D0102A46D0142A54D064E0009800688C
:1028500000F000F90098006881690F438761816981
:10286000042291438161816922690EE00098006829
:1028700000F02AF90098006881690D43856181693B
:102880000E4086618169226912020A43826142E038
:102890000098006800F04CF900980068C1690F4387
:1028A000C761C16904229143C161C16922690EE017
:1028B0000098006800F06EF900980068C1690D4347
:1028C000C561C1690E40C661C169226912020A432D
:1028D000C26120E00098006800F092F9009800685A
:1028E000416D0F434765416D042291434165416D40
:1028F00022690EE00098006800F0AEF900980068C8
:10290000416D0D434565416D0E404665416D22693F
:1029100012020A434265002000993C228854F2BD0D
:10292000FFFBFFFF70B504003C20205C012801D1B3
:10293000022070BD26003C360125357002203D2264
:10294000A05420688268264B134083600868020008
:102950003CD010283AD0202838D0302836D0402813
:102960002DD050281DD0602822D0702803D06B03B2
:1029700098420AD02EE0CB684A688968206800F047
:10298000CFF920688168772208E0CB684A688968B7
:10299000206800F0C5F920688168AA030A438260B4
:1029A00018E0CA684968206800F08AF950210EE0F2
:1029B000CA684968206800F094F9602107E0CA6895
:1029C0004968206800F07CF9402100E0010020689F
:1029D00000F09CF93D2025540020307070BD0000AF
:1029E0008800CEFFF0B506687F4A804B804C814D51
:1029F000A84201D0A04206D17027BE4337004E68DE
:102A00003E43A8420BD0A04209D07B4CA04206D046
:102A1000984204D0904202D08D4CA04203D1774C12
:102A20003440CE6826438024A6434C693443046076
:102A30008C68C4620C688462A84206D0984204D0B4
:102A4000904202D0824A904201D10969016301217A
:102A50004161F0BDF8B5026A01239A430262036A3C
:102A6000426884697B4D25400C682C430094022405
:102A7000A3438C681C435C4B5C4D5E4EB04206D059
:102A8000A84204D0984202D0714FB8420CD1082716
:102A9000BC432700CC683C430427BC43B04206D06B
:102AA000A84204D0984202D0694B984205D1534BBA
:102AB00013404D691D438A692A434260009A82612E
:102AC000496841630462F1BD70B5026A10239A43FC
:102AD0000262026A43688469744D25400C682402CE
:102AE0002C432025AA438D682D011543414A90426D
:102AF00008D1802295432E00CA6815013543402233
:102B0000954308E0394A904205D0374A904202D0B6
:102B10004F4A904206D1814A1A404B698E691E4342
:102B2000B30013434360846149688163056270BDEB
:102B300070B5026A5E4B13400362046A4268C3695F
:102B4000444D1D400B682B435A4D25408C68240290
:102B50002C43284DA84207D1574D2540CC6826026A
:102B60002E43564C344008E0204DA84205D01E4D5F
:102B7000A84202D0364DA84206D16E4D15404A6992
:102B80008E69164332012A434260C3614968C163BA
:102B9000046270BD30B5026A5B4B13400362036A86
:102BA0004268C469414D25400C6824022C43624DA3
:102BB0001D408B681B032B430E4DA84208D00B4DC4
:102BC000A84205D0084DA84202D0214DA84204D108
:102BD0005A4D15404A6992012A434260C4614968CE
:102BE0000164036230BD0000004401400040014028
:102BF00000040040002C014000200040FFFCFFFFCB
:102C000070B54F4A036A13400362046A4368456D16
:102C10004C4E2E400D6835434B4E26408C682404A4
:102C200034434A4EB04208D0494EB04205D0494ED6
:102C3000B04202D0484EB04203D11A404B691B0249
:102C400013434360456549688165046270BD0000B7
:102C5000004801408CFFFEFF30B5026A3F4B134035
:102C60000362036A4268446D3D4D25400C682402AE
:102C70002C433C4D1D408B681B052B43334DA84214
:102C800008D0334DA84205D0324DA84202D0324D73
:102C9000A84204D1344D15404A6992022A43426049
:102CA00044654968C165036230BD0000FF8CFFFECA
:102CB000FFFEFFFFFFFDFFFFFFF7FFFFFFFBFFFF33
:102CC00030B5036A046A0125AC4304628469F025C7
:102CD000AC431201224382610A22934319430162E9
:102CE00030BD30B5036A1024A34303628469036ACC
:102CF0001F4D254012032A438261A02293430901FC
:102D00001943016230BD0000FFEFFFFF8268174BDF
:102D10001340194307220A4382607047FFF3FFFF05
:102D200030B58468134D254029430A4319021143E5
:102D3000816030BDFFCFFFFFFFDFFFFFFFBFFFFF61
:102D4000FFFFFEFF8FFFFEFFFFFFFDFF002C014096
:102D5000004001400044014000480140FFFFEFFFF8
:102D6000FF8FFFFEFFFFDFFFFFFFFBFF8FFFCFFFA8
:102D7000FF0FFFFFFF00FFFF10B5C906C90E036A72
:102D800001248C40A3430362036A8A401A4302620F
:102D900010BDFEE780B59F48012142680A434260AA
:102DA00042681140009100998021490502680A4358
:102DB00002600068014000910098C020C00000F04F
:102DC000CFF901BD38B586B004001422002101A856
:102DD00000F0D4F920687149884234D170488021CC
:102DE0004903C2680A43C260C26811400091009959
:102DF000012102680A4302600268114000910099B3
:102E0000022102680A4302600068014000910098B4
:102E100012200190032402940025039501A9A0200B
:102E2000C00500F0B5F95F4801900294039501A92F
:102E3000794800F0ADF9002200210C2000F087FA5B
:102E40000C2000F089FA07B030BD10B586B0040040
:102E50001422002101A800F091F920686F498842EE
:102E600020D102204E4C2168014321602168084096
:102E700000900098C0208000019012200290012054
:102E80000390002004900620059001A9624800F0FC
:102E90007FF980208003A1680143A160A1680840F8
:102EA0000090009806B010BD81B0016859485C4A96
:102EB000914201D1C10C12E05A4A914205D102213E
:102EC00002680A43026000680DE0574A914201D14E
:102ED000D10B04E0554A914208D180214902426851
:102EE0000A434260406801400091009801B0704779
:102EF00070B586B0040014220021684600F03EF947
:102F00002568454801210222254C0023444EB54244
:102F100008D1256815432560246814400594059C54
:102F200008240AE03F4EB5420CD1256815432560C0
:102F3000246814400594059C102400940192029387
:102F4000039324E0384EB54211D120680843206035
:102F5000206801400591059880200090019202931D
:102F60000393042004906946A020C00511E02F4976
:102F70008D4210D1216811432160216811400591D3
:102F80000599510300910192029303930521049145
:102F9000694600F0FDF806B070BD00000024014055
:102FA000341002400210000010B586B00400142254
:102FB000002101A800F0E2F820681D49884226D1CE
:102FC0001C488021C901C2680A43C260C26811401E
:102FD00000910099042102680A43026000680140E0
:102FE0000091009830200190022002900020039070
:102FF00004900120059001A90F4800F0C9F80022B3
:1030000000211B2000F0A3F91B2000F0A5F906B059
:1030100010BD00003C10024000040050005400406D
:10302000002C01400004004000200040004001400E
:103030000038014034100240000800507047FEE79D
:10304000F0B5002809D00100243100222523C35CFB
:10305000022B04D00423C3630A700120F0BD03686F
:103060001C680E25AC431C60446C334B25681D4026
:103070002560046825680126B54325602D4C256828
:10308000AC464025475D1C253D400127AF406546C5
:103090002F432760C46C856C6C60046D002C06D0D7
:1030A00024682340046D2360836D446D6360252391
:1030B000C6540A700020F0BDF8B500210024012696
:1030C0002522825C022A03D00421C16301242EE060
:1030D000026813680E25AB43136002681368B3439C
:1030E0001360436C144A1D6815401D60114B1D6828
:1030F000AC464025475D1C253D400127AF40654655
:103100002F431F60C36C856C6B60036D002B06D072
:103110001B681A40036D1A60826D436D5A60252248
:10312000865424228154816B002900D088472000D6
:10313000F2BD000004000240FFFEFFFF10B50024B6
:103140000B480168820D0A430260002000F02AF952
:10315000002801D0012401E0FFF71CFE200010BD73
:1031600004490A68044B1340184308607047000084
:103170000020024000000140FFF9FFFF10B50400ED
:10318000080011000200200000F034F9200010BDFA
:10319000FEB500222CE0052602E0584FB842FAD1D5
:1031A000AE402643009C2660554C2568DC432540F4
:1031B0004E68F60300D51D43514E356075682540B5
:1031C0004F68BF0300D51D4375604E4D2E682640E5
:1031D0004D68ED0200D51E434A4D2E606E683440A6
:1031E0004E68B60202D526001C0034436C60521CA7
:1031F0000B681C00D44073D0012595402B40F6D0BD
:1032000054000327A740FE4301964E68012E05D0C7
:10321000022E03D0112E01D0122E0ED18768019EEE
:103220003E40CF68A740374387604668AE434D684D
:10323000EF06FF0F974037434760C568019E2E4059
:103240008D68A5403543C5604D68022D01D0122D13
:1032500019D1D508AD0045192E6A029697001C2693
:103260003E406F463E70029EB4460F276E4636784B
:10327000B7406646BE43B4460F696E463678B740DF
:10328000664637432F6207680326019D3D404F681D
:103290003740BC4627006446BC402C4304604C6861
:1032A000E400A4D5184C9508AD0064190094009C66
:1032B0002468D70018253D400F27AF40BC43A02706
:1032C000FF05B84201D100266AE7104FB84201D18C
:1032D000012665E70E4FB84200D05EE702265FE7A1
:1032E000F7BD0069084000D00120C0B27047002A35
:1032F00001D081617047816270470000000C00506E
:10330000801802400018024060180240000400507B
:103310000008005010B5C20018231340FF249C4041
:10332000E2438907090E9940030004D419489B0819
:103330009B00C01806E0184B0007000F08388008F3
:103340008000181803681A401143016010BD80B551
:10335000FFF7E0FF01BD0000010005D40121C00618
:10336000C00E81400D480160704710B5401E80219D
:103370004904884201D3012010BD094C606003213B
:103380000020C043FFF7C6FF0020A0600721216096
:1033900010BD000000E400E01CED00E000E100E0F2
:1033A00010E000E070B5060000240F4D29780029D8
:1033B00016D0FA208000FEF7B3F801000B48006831
:1033C000FEF7AEF8FFF7D1FF002809D1042E07D28F
:1033D000002231000020C043FFF7B9FFAE6000E0DB
:1033E0000124200070BD00BFAC020020B802002004
:1033F000002200BF094202D0491E4254FCD170474E
:1034000010B504231940436907248C40A3438A4024
:103410001A43426110BDC068C02109010140481E25
:103420008041C00F7047FEB50500002700200190C5
:103430000090002D01D10120FEBD2C0054346068A5
:10344000002805D12800FFF7BDFC0020A0602070F7
:103450002868816880267605314011D18168814ACB
:103460000A4032438260804800688049FEF758F87D
:10347000400001E00098401E009000980028F9D11B
:1034800029688868064008D160681022024362609B
:10349000A06801220243A260012788686268D20600
:1034A00000D4400700D5D4E06068714A0240022091
:1034B000104360608A6880200006D20732D4CA6850
:1034C00018239A43AB681343CB60C02109066A688E
:1034D0000A402B6C13436A6C1A43AB6C1343EA6CBF
:1034E0001A4301923C22AA5C012A03D1019A0123CA
:1034F000134301932A6816695E4B3340019E1E43B5
:1035000016616A688A420DD041088A420AD0824216
:1035100008D059490E68594B3340F026B60316407F
:103520001E430E60296B002900D0C10C2A6910408F
:1035300002D05000400801E0802080030090A87E67
:103540002A7E93036A7ED2031A434303134319432B
:10355000EA680A43009911432C22AA5C56000E43E4
:103560002021695C01290ED1002804D13000802679
:103570007602064307E06068202101436160A0688D
:1035800001210143A160686A002805D0E0214900BB
:1035900001403143AE6A0E432868C168384A0A4088
:1035A0003243C26028680169364A0A4001991143D2
:1035B00001616A6B00212868FFF722FFAA6B32497C
:1035C0002868FFF71DFF2869002806D12868816A4E
:1035D0000F22D2430A43826221E08021890388427C
:1035E0001DD10022E16890000B00C3401807000FB6
:1035F0000F2802D0521C082AF5D30F20C043012AFD
:1036000004D129688A6A1043886208E02A68936AAC
:10361000EB695B1E5B07DB0E984001439162022061
:10362000C0432968C968194A0A40B24207D100213B
:10363000A160616808400121014361600EE061689A
:1036400008401021014361600127A0683843A06051
:1036500004E0606810210143616001273800FEBD6D
:1036600000000000E8FFFF7FB8020020400D0300CB
:10367000FFFEFFFF02FCFF1F08270140FFFFC3FF03
:103680001902FEFF02FCFFDF04FFFF07E7FF3F8395
:1036900070B50400206880680425284033D1542088
:1036A000205C01282FD026005436012030702000E5
:1036B00000F02AFA0021020023D17268174B134050
:1036C000AA011A437260B1601C2223681A6031702B
:1036D00021684A681C239A434A6061690829216865
:1036E0004A6803D1082313434B6001E02A434A6030
:1036F000216B002904D121684A68102313434B60D1
:1037000003E0317070BD022070BD21688A68574B9C
:1037100013401D438D6070BD00000000FEF1FFFFEF
:103720000068006C7047F8B50400206805684768B9
:10373000A8070FD5B8070DD5A06DC00604D4A06D9D
:10374000802109010143A165200000F02FFA022029
:10375000216808600426354201D0374203D128078A
:1037600032D5380730D5A06DC00603D4A06DF10165
:103770000143A1652068FFF74EFE00281ED0A07E01
:1037800000281BD120680068000717D520688168D1
:1037900001200E400BD1216849680C229143226818
:1037A0005160A16D324A0A401043A06506E0A16D48
:1037B00020220A43A265E16D0843E065200000F085
:1037C000F6F90C202168086028060BD580263742C0
:1037D00008D0A06D71020143A165200000F0E8F956
:1037E00020680660E8050CD580267600374208D0B0
:1037F000A06D71020143A165200000F0DAF9206894
:1038000006608026B60035420AD0374208D0A06D47
:1038100071020143A165200000F0CCF92068066028
:103820001026354215D0374213D0206B002803D024
:103830002068C06880070AD0A06DB1010143A1656E
:10384000E06D02210143E165200000F0B4F9206839
:1038500006607602354006D0374004D0200000F0E4
:10386000ABF920680660F1BD00000000E8FFFF7FB3
:10387000FFFEFFFFF1B585B000206A465070019051
:1038800005985422805C012801D1022021E105988D
:10389000543002900125057005980668B06840070D
:1038A00000D509E1019105980069039001984068ED
:1038B00004908949894A8A4880231B06049C022C6B
:1038C000039C00D1CEE09C4201D0844207D10198F4
:1038D0000068B46A4003400B2043B06280E0019866
:1038E00000680F24470302D14000C50E47E028427C
:1038F00044D1870743D40425284201D002253EE065
:10390000070701D503253AE0C70638D4850601D557
:10391000052534E0450601D5062530E0050601D52C
:1039200007252CE0C50501D5082528E0850501D52A
:10393000092524E0450501D50A2520E0050501D526
:103940000B251CE0C50401D50C2518E0850401D524
:103950000D2514E0450401D50E2510E0050401D520
:103960000F250CE0C50301D5102508E0850301D51E
:10397000112504E0400301D5122500E0002504983C
:10398000C006C00E6F4638700298C768BC466846CD
:1039900007780F20B840674687436846007885401F
:1039A0003D430298C56001984068059DED69870810
:1039B0007F1CBD4214D3019D2D68C006C00E6F460A
:1039C0003870B76ABC46684607780F20B84067462B
:1039D0008743A80E04406846007884403C43B462A4
:1039E00001988068019C2568059C24682D02666901
:1039F000AE4328403B4D054035436561019804685E
:103A0000234061D01368C8431840374B9C4217D1FC
:103A100080231B04184257D11468214008430343F4
:103A20001360324800683249FDF77AFD0C214843A3
:103A3000401C01900198002846D00198401EF8E7EC
:103A40002C4B9C4202D180235B0404E02A4B9C4215
:103A50003AD18023DB03184236D114682140084351
:103A6000034327E09C4201D0844206D101980068BC
:103A7000B46A4003400B8443B46201980468234055
:103A800022D01368C8431840174B9C4203D11368D7
:103A900019401A4B0CE0174B9C4203D11368194094
:103AA000174B05E0144B9C420ED113681940154B7F
:103AB00003400B43136007E0029840682021014354
:103AC0000298416068464570002002990870684677
:103AD000407806B0F0BD0000FFFF3FFE0827014020
:103AE0000400008000FFFF07001000B0B8020020B3
:103AF000400D0300004000B8002000B4FFFF7FFF2E
:103B0000FFFFFFFEFFFFBFFFF8B50500002000909C
:103B100028688168012421403BD1102781681F4A11
:103B20000A402ED181681C4A0A40224382601C4808
:103B3000006800020CD51B4800681B49FDF7F0FC2B
:103B4000401C01E00098401E009000980028F9D128
:103B5000687E01281DD000F031F806002868006852
:103B6000204016D128688068204005D128688168E7
:103B7000094A0A402243826000F020F8801B032893
:103B8000ECD3A86D0743AF65E86D0443EC650120F5
:103B9000F2BD0020F2BD0000E8FFFF7F17000080AB
:103BA00008270140B8020020400D0300704770470D
:103BB00070477047704770477047FEE7014840689C
:103BC000704700BFAC0200200000000000000000B1
:103BD00000000000000000000000000000100010C5
:103BE0000010001000100010000000100000000085
:103BF000002800280028000000000000000000004D
:103C00000000000000240024007C00240048007C08
:103C10000048004800000000003800540050003800
:103C2000001400540054003800100000002000541C
:103C30000058003000280054001400080000000064
:103C4000001000280028001000340048004800340C
:103C50000000000000100010001000000000000034
:103C600000000000000000000008001000200020FC
:103C7000002000200020002000100008002000107C
:103C800000080008000800080008000800100020D4
:103C900000100038001000280000000000000000A4
:103CA000000000000000000000100010007C001068
:103CB00000100000000000000000000000000000F4
:103CC00000000000000000100010001000000000C4
:103CD00000000000000000380000000000000000AC
:103CE00000000000000000000000000000000010C4
:103CF0000000000000080008001000100010001074
:103D0000002000200000000000380044004400545F
:103D1000004400440044003800000000001000305F
:103D200000500010001000100010001000000000F3
:103D30000038004400440004000800100020007C0B
:103D400000000000003800440004001800040004D3
:103D50000044003800000000000800180028002877
:103D60000048007C0008000800000000007C0040C3
:103D70000040007800040004004400380000000007
:103D800000380044004000780044004400440038FB
:103D900000000000007C000400080010001000205B
:103DA00000200020000000000038004400440038DB
:103DB0000044004400440038000000000038004483
:103DC00000440044003C00040044003800000000AF
:103DD00000000000001000000000000000000010C3
:103DE00000000000000000000000001000000000C3
:103DF000000000100010001000000000000C003057
:103E000000400030000C0000000000000000000036
:103E10000000007C0000007C0000000000000000AA
:103E2000000000000060001800040018006000009E
:103E300000000000003800440004000800100010DA
:103E4000000000100000000000380044004C005446
:103E5000005C004000400038000000000010002816
:103E6000002800280028007C0044004400000000D6
:103E70000078004400440078004400440044007886
:103E800000000000003800440040004000400040B6
:103E90000044003800000000007000480044004466
:103EA000004400440048007000000000007C004016
:103EB0000040007C004000400040007C000000000A
:103EC000007C00400040007800400040004000407E
:103ED000000000000038004400400040005C004446
:103EE0000044003800000000004400440044007C0E
:103EF000004400440044004400000000003800106A
:103F00000010001000100010001000380000000029
:103F1000000400040004000400040004004400380D
:103F200000000000004400480050006000500048BD
:103F300000480044000000000040004000400040F5
:103F4000004000400040007C000000000044006C85
:103F5000006C005400440044004400440000000091
:103F600000440064006400540054004C004C0044C1
:103F700000000000003800440044004400440044B5
:103F80000044003800000000007800440044004471
:103F9000007800400040004000000000003800446D
:103FA0000044004400440044005400380004000071
:103FB0000078004400440044007800480048004471
:103FC00000000000003800440040003000080004F9
:103FD0000044003800000000007C001000100010B9
:103FE0000010001000100010000000000044004409
:103FF0000044004400440044004400380000000035
:10400000004400440044002800280028001000104C
:104010000000000000440044005400540054006CB0
:10402000002800280000000000440028002800109C
:104030000010002800280044000000000044004454
:1040400000280028001000100010001000000000E0
:10405000007C000400080010001000200040007CDC
:1040600000000000001800100010001000100010E8
:104070000010001000100018002000200010001098
:1040800000100010000800080000000000300010C0
:104090000010001000100010001000100010003080
:1040A000001000280028004400000000000000006C
:1040B0000000000000000000000000000000000000
:1040C00000000000000000FE0020001000000000C2
:1040D00000000000000000000000000000000000E0
:1040E00000380044003C0044004C00340000000054
:1040F0000040004000580064004400440064005840
:1041000000000000000000000038004400400040B3
:104110000044003800000000000400040034004C9B
:1041200000440044004C0034000000000000000087
:1041300000380044007C00400044003800000000CB
:10414000000C0010007C0010001000100010001087
:1041500000000000000000000034004C0044004457
:10416000004C003400040078004000400058006417
:10417000004400440044004400000000001000001F
:10418000007000100010001000100010000000006F
:10419000001000000070001000100010001000104F
:1041A000001000E000400040004800500060005057
:1041B00000480044000000000070001000100010D3
:1041C00000100010001000100000000000000000AF
:1041D00000780054005400540054005400000000C3
:1041E0000000000000580064004400440044004403
:1041F00000000000000000000038004400440044BB
:104200000044003800000000000000000058006476
:1042100000440044006400580040004000000000DA
:104220000034004C00440044004C003400040004FE
:1042300000000000005800640040004000400040C2
:1042400000000000000000000038004400300008BA
:10425000004400380000000000200020007800200A
:1042600000200020002000180000000000000000D6
:104270000044004400440044004C003400000000AE
:10428000000000000044004400280028002800101E
:104290000000000000000000005400540054006CB6
:1042A0000028002800000000000000000044002852
:1042B0000010001000280044000000000000000072
:1042C0000044004400280028001000100010006086
:1042D00000000000007C0008001000200040007C6E
:1042E0000000000000180010001000100020002046
:1042F0000010001000100018001000100010001036
:10430000001000100010001000100010003000100D
:10431000001000100008000800100010001000300D
:104320000000000000000074004C000000000000CD
:104330000000000038B5040014D0250080356868FE
:10434000002803D128702000FEF72EFE242068608C
:1043500020680168012291430160200000F074F997
:10436000012801D1012032BDA06A002802D020001E
:1043700000F02AFA20684168084A0A404260206832
:1043800081682A2291438160FFE720680168012249
:104390000A430260200000F07FFA32BDFFB7FFFF42
:1043A000F8B584B0040020680190C16920680268F3
:1043B00001988068009025005C3520202023134060
:1043C000029320230B4003930026984B0B400FD100
:1043D000039B002B12D0029B002B03D1009BDB0020
:1043E00000D483E06969002901D0200088471BE1DF
:1043F000009B8F4F1F4002D18E4B134076D0CB07CE
:1044000007D5D30505D50123019F3B622F6B3B43A5
:104410002B638B0709D5009BDB0706D50223276892
:104420003B622B6B04271F432F630423194208D0E0
:10443000009FFF0705D527683B622B6B02271F43B0
:104440002F630B070CD5029B002B03D1009B784FE9
:104450001F4005D0082327683B622F6B3B432B632B
:104460008301194006D0510104D521680B62296BE4
:1044700008432863286B00282ED0039800280AD010
:104480000298002802D10098C00004D5696900296B
:1044900001D020008847286B40272168896839406F
:1044A00002D1282101401CD0200000F099FA206898
:1044B00081680F4011D08168402291438160286A51
:1044C00000280AD05C498163286AFEF7F5FD0028C0
:1044D00002D0286A816B8847A6E0200000F0AEFA7F
:1044E000A2E0200000F0AAFA2E639DE02B69012BC8
:1044F0005FD1102319425CD01A425AD001990B6245
:104500001021C9432268926852062DD52A6A136881
:104510005B689BB2002BE8D05C27E75BBB42E4DA28
:104520006B8012681268024018D122681268434BEF
:10453000134022681360226893680127BB4393608D
:10454000226893684027BB439360E8622E6120682D
:10455000026811400160286AFEF772FD5C20205A53
:104560006988411A89B220E05C22A25A6B88D21A6B
:104570006B461A806A88002A56D06A461288002A3A
:1045800052D0226812682E4B1340226813602268B2
:1045900093682C4F1F409760E8622E616E6120681F
:1045A00002681140016068460188200000F047FA67
:1045B0003AE0C303194208D0009F7F0205D5019855
:1045C0000362200000F03CFA2EE083048027394289
:1045D0000AD0174002D1009F1F4005D0A9690029C9
:1045E00022D0200088471FE0402739420DD01740D5
:1045F0000BD0216809684022914322681160A862AB
:10460000AE61200000F01DFA0EE00B4005D0500016
:1046100003D5200000F016FA06E0C80104D5002AF0
:1046200002D5200000F00FFA05B0F0BD0F08000021
:104630000100001020010004214A0008FFFEFFFFD6
:10464000DFFEFFFFFEFFFFEFF8B5040000270025A7
:10465000206801688E4A0A40A168114322690A4312
:1046600061691143E2690A43616E11430160416867
:10467000884A0A40E1681143416081689E4A0A40C5
:10468000A1691143226A0A438260C16A0F229143E1
:10469000626A0A43C262994A1021994B984208D132
:1046A00010688007800F1ED0022810D011D3032875
:1046B0000BE0944B984210D110680C22024012D0AB
:1046C000042A06D0082A02D00C2A04D00CE00221C9
:1046D0000AE0042108E0082106E08B4A904202D05B
:1046E0008A4A904200D1002131A6B34880221202AA
:1046F000E36993422AD1002906D0022908D004296F
:104700001FD0082920D049E000F077FC002846D0CF
:1047100061680091616A4900715AFCF701FF40002D
:104720000099490840180099FCF7FAFE80B2010090
:104730001039A24A914231D202400007400F104383
:1047400024E000F019FCE1E71000E1E7002906D0C1
:10475000022908D004291CD008291DD01EE000F031
:104760004CFC00281BD061680091616A4900715AB5
:10477000FCF7D6FE0099490840180099FCF7D0FED6
:1047800080B2010010398D4A914207D22168C86079
:1047900005E000F0F1FBE4E71000E4E7012520006C
:1047A00068300121418001808760C7602800F2BD28
:1047B000010002000400060008000A000C001000BE
:1047C00020004000800000012821415CC90706D577
:1047D00001684A687A4B1340C26A1A434A6028212A
:1047E000415C890706D501684A68764B1340026B25
:1047F0001A434A602821415C490706D501684A6886
:10480000714B1340426B1A434A602821415C0907EF
:1048100006D501684A686D4B1340826B1A434A60A3
:104820002821415CC90606D501688A68684B134097
:10483000C26B1A438A602821415C890606D501684B
:104840008A68644B1340026C1A438A602821415CD9
:10485000490611D501684A685F4B1340426C1A4300
:104860004A60426C80235B039A4205D14A685B4BE5
:104870001340826C1A434A602821415C090606D520
:1048800001684A68634B1340C06C18434860704726
:10489000F369FFCFFFCFFFFFF8B50400002580309C
:1048A000C560FFF78BF907005B4E206800680007C2
:1048B00009D500963B00002280218903200000F0EA
:1048C00027F800280DD12068006840070BD5009616
:1048D0003B0000228021C903200000F019F80028C5
:1048E00001D00320F2BD2100803120204860886083
:1048F000E5660D700020F2BDFFF4FF115410024078
:10490000003801400044004000480040004C004096
:10491000FEB5089F80242401002506000191684609
:10492000027002933068C069019901400198814288
:1049300001D1012000E0002069460978884238D181
:104940000020C0438742EDD0FFF738F90299401AA2
:10495000874201D3002F11D1306801682F4A0A40E5
:1049600002603068816801229143816030008030AC
:1049700020214160816005700320FEBD3068006821
:104980004007CFD53068C0692040CBD03068046282
:1049900030680168214A0A4002603068816801225B
:1049A0009143816030008030202141608160C1608E
:1049B000E1E70020FEBD00000024F400F0FF00004D
:1049C000FFFFFDFFFFFFFEFFFFFFFBFFFF7FFFFF7E
:1049D000FFEFFFFFFFDFFFFFFFFFEFFFFFFF9FFF87
:1049E00001680A68134B13400B6001688A68124B18
:1049F00013408B60C16E012904D101680A6810233D
:104A00009A430A602021882281500021C1660167F3
:104A100070470000FFFFF7FFFFFFFF015FFEFFFF92
:104A200080B5806A0100563100220A810A8000F0B8
:104A300005F801BDDFFEFFFFFEFFFFEF7047704787
:104A40007047704770477047FEB507001BD0A84CF1
:104A50003878C00719D5A16838200840E16880255A
:104A6000AD02102808D18807800F032806D0796886
:104A70006808814234D13BE00828F8D1206805401D
:104A800003D07868002800D1B7E1387880077BD55B
:104A9000A06838210140E268B948BA4D10294ED1CA
:104AA0009207920F022A4CD0F968002900D196E0B3
:104AB000216808403969014321602068A10D014344
:104AC0002160FFF77BF83E0007002068400500D515
:104AD0007DE0FFF773F8C01B0328F6D30320FEBD6B
:104AE000A022D202914207D1216882000A432260AB
:104AF00021680843206007E02068A3490140216045
:104B00002068A24901402160786800280BD0FFF797
:104B100055F8060020682840B7D1FFF74FF8801BF2
:104B20006528F7D3DAE7FFF749F806002068284040
:104B3000ABD0FFF743F8801B6528F7D3CEE70029F9
:104B4000B2D12268520502D5FA68002A3ED06268C6
:104B500015407A6912022A43626000290ED1216849
:104B60000840396901432160A64801212268920466
:104B7000520F9140FCF7D4FCA3490860A348006899
:104B8000FEF710FC002821D10225387800070AD54D
:104B9000A06838210140182931D1206E284002D068
:104BA000B869002812D03878400700D4A9E0002066
:104BB0000190A06838210140202942D1E06D0540D4
:104BC00000D19EE0B868002800D09AE015E1606846
:104BD000054070690002284360603700D4E7206810
:104BE0008B4901402160FEF7E9FF05002068400580
:104BF000CAD5FEF7E3FF401B0328F7D36EE7B86979
:104C00000028206E0ED0012101432166FEF7D6FF59
:104C10000600206E2840C6D1FEF7D0FF801B032877
:104C2000F7D35BE7012188432066FEF7C7FF060044
:104C3000206E2840B7D0FEF7C1FF801B0328F7D3B2
:104C40004CE7E806E16B014008D1E16B0143E16309
:104C5000E16B084000900098012001906D4D28689C
:104C6000C00512D4A00D0090286800990143296066
:104C7000FEF7A4FF060028680099014005D1FEF761
:104C80009DFF801B0328F6D328E7B868012101287F
:104C900005D00528E06D06D104220243E265E06DEF
:104CA0000143E16505E08843E065E06D0421884348
:104CB000E0650226B86800280CD0FEF77FFF0500EB
:104CC000E06D304016D1FEF779FF401BA6498842BF
:104CD000F6D303E7FEF772FF0500E06D304009D020
:104CE000FEF76CFF401BA0498842F6D3F6E600BFF2
:104CF000001002400198002803D0E06B9B4901405E
:104D0000E163F86900287AD0A16838220A40102AA5
:104D100054D08026B60496490228206838D1014034
:104D20002160FEF74BFF05002068304005D0FEF7FC
:104D300045FF401B0328F7D3D0E6E0688D490140CA
:104D4000386A0843796A0143B86A00020843F96A7D
:104D50000143386B0843E06020687108014321601B
:104D6000E068F1000143E160FEF728FF05002068DC
:104D7000304044D1FEF722FF401B0328F7D3ADE6B5
:104D8000FFC7FFFFFF80FFFFFFFFFEFFFFFFFBFFEF
:104D900001402160E06803218843E060E0689E49AB
:104DA0000140E160FEF70AFF05002068304026D090
:104DB000FEF704FF401B0328F7D38FE601281CD021
:104DC000E0688107890F3A6A914216D1702101404B
:104DD0007A6A914211D1FE21C9010140BA6A1202D8
:104DE00091420AD1F82189030140FA6A914204D123
:104DF000400F4007396B884201D00120FEBD0020E2
:104E0000FEBD00000024F400B8020020B40200201F
:104E1000FFFEFFFF00700040F8B5070066D000916C
:104E20007E4800684007400F884218D27B4C2068BB
:104E300007218843009901432160FEF7BFFE009DD2
:104E4000060020684007400FA84207D0FEF7B6FED4
:104E5000801B45498842F4D30320F2BD0095396890
:104E6000704C022001420CD0490704D5A168E02211
:104E7000D2010A43A260A168694A0A40B968114395
:104E8000A1600725ED433978C90732D57968012932
:104E900018D12068800329D5A06828400143A1606B
:104EA000FEF78CFE3E000700A068382101407068C4
:104EB000C00081421CD0FEF781FEC01B2A498842F7
:104EC000F2D3C9E7022902D12068800103E000295A
:104ED00003D120684005DFD408E0032903D1226E06
:104EE0001040D9D102E0E26D1040D5D10120F2BDD1
:104EF00037000098494909684907490F884217D285
:104F00004648006805400098284344490860FEF779
:104F100055FE009D0600414800684007400FA8422A
:104F200006D0FEF74BFE801B0F498842F3D393E770
:104F30003878400705D5A0683B490140F868084328
:104F4000A06000F019F83949A2681205120F92000A
:104F5000895CC906C90EC8403549086035480068F3
:104F6000FEF720FAF2BD000089130000FFFFFFEFFB
:104F7000FFFFFFFE8C80C11F30B507212F48294C51
:104F80003823A2681A4006D123680122DB0A19409F
:104F90008A4011001EE04208A5681D40082D01D17D
:104FA000100030BDA5681D40102D16D1E368E568DE
:104FB0002D092940491C7F259B079B0F032B00D1FE
:104FC0001000FCF7ADFAE168090A0D406843E1689A
:104FD000490F491CFCF7A4FA30BDA06818402028EE
:104FE00002D18020000230BDA0680340182B02D1FE
:104FF000FA20C00130BD002030BD0F4801680C48C8
:1050000000680F4A4904490F8900515CC906C90E5E
:10501000C840704700000000FFFFFEEF0020024084
:10502000FFF0FFFF00100240FF8FFFFF786B0008CA
:10503000B8020020B4020020081002400024F4004E
:105040003C6C0008F0B59BB0FEF778F800F0FCFA75
:1050500014216846FEF7CCF9B348016801220A43DF
:1050600002600168CA07D20F0592059904250168FC
:1050700029430160016829400591059902210268D0
:105080000A43026000680140059105988824A40045
:10509000A026F605002221003000FEF728F9DB4F9C
:1050A000002280213800FEF722F9009401200190AF
:1050B00000240294039469463000FEF769F86120E9
:1050C0000090019402946946D148FEF761F8300DD2
:1050D00000900194029469463000FEF759F8802050
:1050E0000090012001900294039469463800FEF775
:1050F0004FF868460021002200230EC0C54EC64866
:10510000306028077060B460F46080200006306171
:1051100075613483B4760120F0612021705474628B
:10512000B4622C217454346374633C217454F46469
:105130003000FEF778F9002801D000F0DFFAD348FC
:1051400000900120019069463000FEF793FB002893
:1051500001D000F0D3FACE48009069463000FEF747
:1051600089FB002801D000F0C9FACA4800906946BE
:105170003000FEF77FFB002801D000F0BFFAC648E0
:10518000009069463000FEF775FB002801D000F062
:10519000B5FA17A800210022002300252EC068467A
:1051A0000EC01C2110A8FEF723F9342103A8FEF736
:1051B0001FF9822040003718B848F8643C657C65C8
:1051C000B748B865FC653C667C66A8204000351889
:1051D0002800FDF7E9F9002801D000F08FFA8020BF
:1051E0004001179017A92800FDF79CFB002801D06B
:1051F00000F084FA2800FDF708FA002801D000F03A
:105200007DFA0094019402946946280000F078FA2F
:10521000002801D000F072FA6020109011941294CE
:105220001394149415941694042210A92800FDF7E1
:10523000F1FA002801D000F061FA03940494059477
:105240000694079480208001089009940A940B9496
:1052500000030C900D940E940F9403A9280000F005
:1052600080FA002801D000F049FA2800FDF740FE3E
:105270000AA800210022002300252EC068460EC087
:105280001C21FEF7B5F8CE2040003518BA4828603A
:105290006C60AC608248E8602C61AC612800FDF76E
:1052A00083F9002801D000F029FA802040010A90FB
:1052B0000AA92800FDF736FB002801D000F01EFAED
:1052C0002800FDF7A2F9002801D000F017FA009499
:1052D00002946946280000F013FA002801D000F07B
:1052E0000DFA60200390049405940794002203A90A
:1052F0002800FDF78FFA002801D000F0FFF9280000
:10530000FDF7F6FD0AA80021002200230EC001606F
:1053100068460EC01C21FEF76BF834210EA8FEF77C
:1053200067F8C84802E000BF341002408D218900B0
:10533000705070184460846059487118C8608D209E
:105340008000301804618D208000301844618D2069
:105350008000301884618D2080003018FDF724F91A
:10536000002801D000F0CAF9802040010A900AA963
:105370008D2080003018FDF7D5FA002801D000F00C
:10538000BDF98D2080003018FDF73FF9002801D0CD
:1053900000F0B4F90094029469468D208000301822
:1053A00000F0AEF9002801D000F0A8F960200390C9
:1053B000049405940694079408940994002203A980
:1053C0008D2080003018FDF725FA002801D000F06C
:1053D00095F90E940F9410941194129480208001EA
:1053E000139014941A940EA98D208000301800F0A8
:1053F000B8F9002801D000F081F98D208000301824
:10540000FDF776FDAF483860AF4807E00008005070
:105410000004005010000020002401407860BC60AF
:105420000120F8603C617C61BC61FC613C62380039
:1054300000F0FEF9002801D000F060F900213800EA
:1054400000F0D0FB002801D000F058F9002138000E
:1054500000F0E5FB002801D000F050F91C2168465F
:10546000FDF7C6FF9948E8642C656C650C48A86593
:10547000EC656C66F42040003018FDF795F80028C4
:1054800001D000F03BF9924F0CE000BF0200000495
:10549000100000100002002400000140002C014018
:1054A000FFFF00003800FDF7B0F8002801D000F041
:1054B00025F960200090019402940494002269462A
:1054C0003800FDF7A7F9002801D000F017F93800DF
:1054D000FDF70EFD350064357E4828619620800179
:1054E0006861AC61EC612C620C206862AC62EC62B9
:1054F0002C636C63AC6330007430FEF71BFF002834
:1055000001D000F0FBF800213000743000F0CDFB3A
:10551000002801D000F0F2F800213000743000F0D3
:10552000DDFB002801D000F0E9F83000743000F015
:105530009FFB002801D000F0E1F800F02DFC00F006
:1055400083FD002000F0AEFD634800F0C3FF634818
:105550008D2189007118C8648D2080003018046581
:105560008D20800030184465012000F09BFD8020D4
:105570008000FDF7F5FD13E000040040C0B20A28EA
:1055800008DB00213800FDF7BBF82C71E878002813
:1055900000D06C8052480078002801D050490C702F
:1055A00050480078002810D04E490C7000F0B1FF30
:1055B000287000F0D1FF4C480078012805D14A49F5
:1055C0000C706420305C00F05FFE484800780028D2
:1055D00018D046490C706878042801DB00206870F8
:1055E000687880003018A321890040585839711814
:1055F000C864A020800031183000FEF73BF930006D
:10560000FEF746F83A4800780028C3D038490C70B5
:10561000288900F0E1FF012100B200F0FDFF3549CB
:10562000888200F08DFEA8780028B3D02879401C2D
:105630002871C1B20529A1D100213800FCF7F4FF7F
:10564000A8E700000040014010B598B034210BA835
:10565000FDF7CEFE684600210022002300241EC074
:105660001C21FDF7C5FE8020800000F0EFFF022026
:105670000B90FE300E900F944020109012940BA8C7
:10568000FFF7E2F9002801D000F038F80720009079
:1056900001940294039400216846FFF7BDFB0028A3
:1056A00001D072B6FEE7144804900594079409945B
:1056B00004A800F0F1FF002801D072B6FEE718B090
:1056C00010BD0000005400405B3D30000020004051
:1056D000F801002000380140881300000002002477
:1056E0001F0700201C0700202C0700201D0700209A
:1056F0001E070020200600202140000072B6FEE7B1
:10570000F0B53C22825C012A01D10220F0BD0122C9
:105710003C23C25402233D24035505686E68AB68E0
:10572000354CA54203D1354F37404E683E43702774
:10573000BE430F6837436F600568A54205D0304C03
:10574000A54202D02F4CA54204D18024A3438968EE
:105750001943A9603D21425400213C22815400207C
:10576000F0BD10B53C22825C012A01D1022010BD9F
:1057700001223C23C254CA68234B13408A681A434F
:10578000224B13404A681A43214B13400A681A43BC
:10579000204B13400A691A43164B13404A691A43B7
:1057A0001D4B13400A6B1A431C4C14408A691304A6
:1057B00023430268104CA24214D1194C1C40CB69FF
:1057C00023430E4C1C408B6A1B052343154C1C4085
:1057D0000B6A2343144C1C404B6A2343134C1C405C
:1057E000CB6A2343536400E0000000213C22815433
:1057F000002010BDFFDFFFFF002C0140FFFF0FFF67
:105800000004004000400140FFFCFFFFFFFBFFFFE2
:10581000FFF7FFFFFFEFFFFFFFBFFFFFFFFFF0FFFF
:10582000FFFFFFEFFFFFFFFEFFFFFFFDFFFFFFDFBB
:1058300070B5040001D1012070BD2500403500265F
:105840006878002803D12E702000FDF7FEFA24208E
:1058500068702068016801229143016060686D49A9
:1058600001402068016121686B488A6802408A60B3
:10587000E1680129A16801D1C24301E0842212023A
:105880000A4321688A60E168022903D18021090165
:105890002268516021684A68604B13434B6021685D
:1058A000CA681040C860206961690143A0690002AC
:1058B00008432168C860E069216A014320680160EB
:1058C0002068016801220A4302606E60202068702F
:1058D0002663AE70002070BDFEB504000F001600F8
:1058E0001D0040304078202800D090E04020205C0F
:1058F000012800D18BE0012040216054FEF75EF9C1
:105900000190009019230122D103200000F09CF89F
:1059100000287AD121202100403148701020210038
:105920004031887000202100403148606662658502
:1059300060633B48089E618DFF290BD9FF212185BB
:10594000009080235B04FF223900200000F034F92E
:10595000019D11E0628D2285009080239B04D2B2CC
:10596000F2E7FF2020850020009080235B04FF22C7
:105970003900200000F020F9608D00282DD02A0089
:105980003100200000F08DF800283ED1606A0078D8
:1059900021688862606A401C60622248618D091833
:1059A0006185218D08182085618D0029E4D00004CF
:1059B000E2D10095330000228021200000F044F85D
:1059C000002822D1608DFF28CBD8628D228500204F
:1059D000009080239B04D2B2CAE731002A00200045
:1059E00000F089F801000ED120202268D0612268E1
:1059F00053680D4D1D40556022004032507000200C
:105A0000002393701070080002D00120FEBD022018
:105A1000FEBD0000FFFFFFF0FF7FFFFF00800002E0
:105A200000200080FFFF000000E800FE00688169A0
:105A3000890701D500218162012182690A4002D1D2
:105A40008269114381617047F8B5002405000F0099
:105A5000684602701E00286880693840B84201D14B
:105A6000012000E0002069460978884217D1002013
:105A7000C0438642EFD0FEF7A1F80699401A86424D
:105A800001D3002EE7D128004030202142680A438C
:105A9000426041700021817004700120F2BD00203D
:105AA000F2BD70B504000D00160020688069800703
:105AB0001FD432002900200000F044F8002801D053
:105AC000012070BD0020C0438542EED0FEF776F87D
:105AD000801B854201D3002DE7D1200040302021DA
